:020000040000FA
:08000000803102288731E82F4E
:1007320050018C0108008331E123833143011114FC
:1007420008008331E123833143011115080051016F
:10075200910102309300920108006400800101318E
:10076200890BAF2B0034FE0012001E00FE0BB52BCE
:10077200003401308431522483310D30890BBF2B78
:100782000000080043018F010830900091010930F8
:100792008D00901208008331D62383314E3085318B
:1007A200322583314001181508002830430190009A
:1007B20091018F0109308D004001131713160800B3
:1007C20043010F19E52BE62BE12B11081F39031DFD
:1007D200EB2BEC2BE12B08008331C32383318431D3
:1007E200C62483318331A823833183319923833112
:1007F2000800F0008331E1238331700843018C004B
:100802004E018D1C052C062C012C8D100800833105
:10081200ED2384318331CC2384318431F524843136
:100822000030FB00FC008531A5258431803102288F
:100832005A34883489348834A7348834C3348834A9
:10084200483488346A348834CE34883498348834CE
:1008520008342E34F10083319C2384314001630833
:100862008331FA2384317108400157048331FA231A
:1008720084318331A22384310800F3007D08F20021
:100882007208F3047308043884312B24843173080A
:10089200FB3984312B2484311030890B4E2C0032E9
:1008A2000800F500FD017508F03984313E248431D9
:1008B2007508F4000330F435FF3E031D5C2C7435DB
:1008C200F03984313E2484310800F500FD01FD0A2F
:1008D2007508F03984313E2484317508F400033000
:1008E200F435FF3E031D712C7435F03984313E24FA
:1008F20084310800F901FA018C2C7608790784000A
:1009020077087A3D850000088431662484310130FD
:10091200F9070030FA3D76087907840077087A3DB6
:1009220085001200031D962C972C7E2C0800F900DE
:10093200B22C7608BF3E843152248431C52C76080D
:10094200933E843152248431C52C7608D33E8431BF
:1009520052248431C52C76087F3E8431522484315E
:10096200C52C7908F700F8017808003A0319BA2C67
:10097200AC2C7708023A03199A2C013A0319A02CDD
:10098200073A0319A62CAC2C0800400198019901E2
:100992009A013B309200703093001F3094007E0128
:1009A200CE012030C3003330B800C401B901053094
:1009B200CF00BA01C501D0013730BB00F030C6000C
:1009C200FF30D1003F30BC00F030C700FF30D20012
:1009D2000E307D01C50007307E019E0008309C006C
:1009E2000C307D01C6000800F601F60A01308431A0
:1009F20098248431B530F6008830F70084317B24A6
:100A020084310E304001D9000030DA00400159082B
:100A1200FB007B08F60001308431982484312E30AB
:100A22008431662484310630FC001330FB00AE3082
:100A3200890B192DFB0B192DFC0B192D01304001CF
:100A4200D9070030DA3D5A08803AFB0080307B0239
:100A5200031D2D2D12305902031C302D312D072D6F
:100A62000800F7007708F60076084001E30000303E
:100A720084312B2485312730F600F530890B3F2D48
:100A8200F60B3F2D000003308431522485310730AC
:100A9200F6007D30890B4B2DF60B4B2D00000330F9
:100AA2008431522485310730F6007D30890B572D71
:100AB200F60B572D00000330843152248531073064
:100AC200F6007D30890B632DF60B632D000002309A
:100AD2008431522485310730F6007D30890B6F2D29
:100AE200F60B6F2D000028308431522485314130BD
:100AF200F600EE30890B7B2DF60B7B2D00320C308D
:100B02008431522485314130F600EE30890B872D35
:100B1200F60B872D00320130843152248531413069
:100B2200F600EE30890B932DF60B932D0032063032
:100B32008431522485314130F600EE30890B9F2DED
:100B4200F60B9F2D00320800D72F400145084604BE
:100B5200031DAC2DAD2DB52D8331BA238531013066
:100B62004001C5000030C600F601F60A01308431AA
:100B7200982485313430F6008830F70084317B24A4
:100B82008531F601F60A02308431982485317A30B3
:100B9200F6008830F70084317B2485311A30400119
:100BA200DA005E30D9006E30890BD52DD90BD52DE8
:100BB200DA0BD52D00004001C501C6010130FB0052
:100BC2000030FC00A52D400145084604031DEA2D16
:100BD200EB2DF32D8331BA23853101304001C5005D
:100BE2000030C600F601F60A0130843198248531BE
:100BF20040014808F7004708F60084317B2485311C
:100C0200F601F60A023084319824853140014A08FF
:100C1200F7004908F60084317B248531F601F60A93
:100C2200033084319824853140014C08F7004B0889
:100C3200F60084317B248531F601F60A04308431D2
:100C42009824853140014E08F7004D08F6008431A2
:100C52007B24853140010E182F2E302E482E013074
:100C6200BD000030BE0002304001DA004530D9003C
:100C7200A930890B3A2ED90B3A2EDA0B3A2E0032D2
:100C82004001C501C6010330FB000030FC008E1894
:100C92004B2E4C2E642E0130BF000030C0000230BB
:100CA2004001DA004530D900A930890B562ED90B04
:100CB200562EDA0B562E00324001C501C601033012
:100CC200FB000030FC008E19672E682E802E01304A
:100CD200C1000030C20002304001DA004530D900C4
:100CE200A930890B722ED90B722EDA0B722E0032BA
:100CF2004001C501C6010330FB000030FC000E1AA2
:100D0200832E842EA52D0130C3000030C400023092
:100D12004001DA004530D900A930890B8E2ED90B5B
:100D22008E2EDA0B8E2E00324001C501C601033031
:100D3200FB000030FC00A52D400145084604031DC0
:100D4200A32EA42EAC2E8331BA238531013040016B
:100D5200C5000030C600F601F60A0130843198243D
:100D620085312030F6008830F70084317B248531CC
:100D720040013D033E04031DBF2EC02E012FF6018C
:100D8200F60A023084319824853140014808F70080
:100D92004708F60084317B2485314001DB01DC0108
:100DA20003104001991F03140318D82EDB2E4001B3
:100DB2009917DD2E4001991302304001DA004530C7
:100DC200D900A930890BE32ED90BE32EDA0BE32EDF
:100DD200003201304001DB070030DC3D5C08803A24
:100DE200D90080305902031DF82E0A305B02031C21
:100DF200FB2EFC2ED12E4001BD01BE01FB01FC01E8
:100E02003F034004031D062F072F482FF601F60A61
:100E1200023084319824853140014A08F70049089C
:100E2200F60084317B2485314001DD01DE010310AF
:100E320040019A1E031403181F2F222F40019A16F5
:100E4200242F40019A1202304001DA004530D900C5
:100E5200A930890B2A2FD90B2A2FDA0B2A2F00321D
:100E620001304001DD070030DE3D5E08803AD900E6
:100E720080305902031D3F2F0A305D02031C422FAE
:100E8200432F182F4001BF01C001FB01FC014103A8
:100E92004204031D4D2F4E2F8F2FF601F60A02300A
:100EA20084319824853140014C08F7004B08F60044
:100EB20084317B2485314001DF01E00103104001D0
:100EC2001A1F03140318662F692F40011A176B2F7C
:100ED20040011A1302304001DA004530D900A9302E
:100EE200890B712FD90B712FDA0B712F0032013060
:100EF2004001DF070030E03D6008803AD9008030D1
:100F02005902031D862F0A305F02031C892F8A2F84
:100F12005F2F4001C101C201FB01FC0143034404F4
:100F2200031D942F952FA52DF601F60A0230843168
:100F32009824853140014E08F7004D08F6008431AF
:100F42007B2485314001E101E201031040019A1F37
:100F520003140318AD2FB02F40019A17B22F40018E
:100F62009A1302304001DA004530D900A930890BCA
:100F7200B82FD90BB82FDA0BB82F0032013040014D
:100F8200E1070030E23D6208803AD9008030590220
:100F9200031DCD2F0A306102031CD02FD12FA62FA3
:100FA2004001C301C401FB01FC01A52D7C08003AEC
:100FB2000319DC2FA52D7B08003A0319A62D013A4F
:100FC2000319E42D023A03199D2EA52D08001930AC
:100FD200840084308500473086000030870012305C
:100FE2008331B4238731FD01203084000030850035
:100FF20027308331AE23873140018431082C0034FD
:10100200003400340034003400340034003400343E
:10101200003400340034003400340034003400342E
:10102200003400340034003400340034003400341E
:1010320000340034003400340034003400344C34C2
:101042004C3461346D3461346E3464346F34203422
:1010520061346C34203464346F34633465346E34F8
:101062007434653400344C34693473347434613408
:1010720064346F34203464346534203464346F341F
:10108200633465346E347434653473340034343408
:101092002E344D34613475347234693463346934B6
:1010A2006F342034563461347234673461347334AB
:1010B200003430342E344834613472346F346C343A
:1010C200643420344D347534723463346934613499
:1010D200003435342E344F34733463346134723413
:1010E20020344234613472347234653472346F3471
:1010F200003464346934733470346F346E34693458
:1011020062346C34653473342E342E342E3400340D
:1011120031342E344C3475347A34203450346134C2
:10112200743472346934633469346134003437346A
:101132002E344A346F34733465342034413472347B
:101142006D3461346E3464346F34003432342E348E
:1011520046346C346F347234203441346E34673424
:1011620065346C346134003449346E346934633428
:10117200693461346C3469347A3461346E34643481
:101182006F34003433342E344C3475347A34203492
:101192005334743465347234003436342E34463465
:0811A200693474346F34003429
:020000040001F9
:04000E00ED3FE73F9C
:04001400FF3FFF3F6C
:00000001FF
